:1004A900A0BB622A392C24BA203831E57F809B42CF
:0704B9000A190C049A001857
:0D049200EF9004A993F580C2A07F2C7E019D
:0A049F00EF1F70011E144E70F722CB
:10037300120492D2A0ED9004B693F580C2A11204A8
:100383009BD2A1EB9004A993F580C2A212049BD245
:0E039300A2E51793F580C2A312049BD2A32209
:0903420075170C7B0C7D0C7F0C7F
:10034B00120492D2A0ED93F580C2A112049BD2A10C
:10035B00EB93F580C2A212049BD2A2E51793F58012
:08036B00C2A312049BD2A322DD
:1003A100D2B47F087E0012049FC2B47F5A7E00122D
:1003B100049FD2B47F087E0012049FA2B492007FF2
:0B03C100647E0012049FD2B4A2002250
:0D04C0001203CC7F4E1203D17F7F0203D1C7
:1003EB00E4FC7D08C2B4ECC313FCD2B430B40343B9
:0D03FB0004807F0F7E0012049FDDE9AF0437
:0104080022D1
:0503CC001203A17FCC2B
:0203D100AD0776
:1003D3007B08C2B4ED1392B47F057E0012049FD252
:0703E300B4EDC313FDDBEBD9
:0103EA0022F0
:100445001203CC7F441203D11203CC7FBE1203D119
:0B0455001203EB8F0C1203EB8F0D2243
:1002BF00E50D54F064F0701BE50C700EE50CF404C2
:1002CF00F50CE50DF404F50D8009E50CF404F50CBF
:1002DF00630DFFE50DC454F0FFE50CC4540F4FFF41
:1002EF0075F06484E5F075F00A84F50FEF75F00A88
:1002FF008485F010E50F75F00AA42510F50AE50CBA
:10030F00540FFF7E007C027D71120222AB07AA06FA
:10031F000C7DE81202898F11AE02AF037C037DE8DA
:10032F001202897E007F64CFCDCFCECCCE12028950
:02033F008F121B
:010341002299
:10047A0075E78175E5038FE48EE3C2AF75E64675CD
:08048A00E6B900D2AF0204CD77
:1004600075E78175E5028FE48EE38DE2C2AF75E634
:0A0470004675E6B900D2AF0204CDD4
:1004090075E78175E5018FE48EE3C2AF75E6467540
:0D041900E6B90085E2141204CDD2AFAF1495
:0104260022B3
:0C04CD00E4F5E7F5E5F5E6F5E3F5E422DB
:040427007F0A7E00CA
:10042B007C64EF4E60131CEC60087D0A1DED60F6DA
:09043B0080FAEF1F70EC1E80E94D
:010444002295
:1001570020904312042720903AD2B2D2B3D2A4D22D
:10016700B70509E50970020508640345087024F519
:1001770008F5097F027E2012047AAD0E7F027E20E9
:100187001204607F027E2212047AAD0B7F027E2268
:100197001204603090FD209341E5094508603B1249
:1001A7000427209335E509640145087009E50EC366
:1001B700947D5002050EE50964024508701CE50BA5
:1001C700C3947D5015E50B2401FFE433FEC3EF957F
:1001D7000E7480F86E985002050B20963DE5094590
:1001E700086037120427209631E509640145087035
:1001F7001BE50E6017E50B2401FFE433FED3E50E84
:100207009FEE6480F87480984002150EE509640239
:0B02170045087006E50B6002150B2285
:10000300751395D2A4D2B2D2B3D2B720962A7F6405
:100013007E0012042B2096207F027E2012047A7D1C
:10002300267F027E201204607F027E2212047A7DE4
:10003300107F027E221204607F027E201204098F49
:100043000E7F027E221204098F0B750E26750B108C
:100053001204C0E4F5131204451203420513E51319
:10006300C3949640F1120157E509450870620513E0
:10007300E513C394964009E4F5131204451202BF35
:10008300200044E50AC3950E5007E50AC3950B50BB
:1000930022E50AB45508E5117004E512601BC2A4F9
:1000A300E50AC3950E4006C2B2D2B7800CC2B3C2F2
:1000B300B78006D2A4D2B2D2B3851217AB11AD105A
:1000C300AF0F1203738009D2B2D2B3D2B712034275
:1000D300E5094508608FE509640145087034AF0EF2
:1000E300FE7C037DE81202347E007F64CFCDCFCE49
:1000F300CCCE120234AD07E50E75F06484E5F075DD
:10010300F00A84FBE50E75F00A8485F0177F0A1266
:10011300034BE509640245086003020068AF0BFE68
:100123007C037DE81202347E007F64CFCDCFCECC3A
:10013300CE120234AD07E50B75F06484E5F075F07B
:100143000A84FBE50B75F00A8485F0177F0B120315
:040153004B020068F3
:030000000204D91E
:0C04D900787FE4F6D8FD75812002000356
:10022200EF8DF0A4A8F0CF8CF0A428CE8DF0A42EF0
:02023200FE22AA
:10023400BC000BBE0029EF8DF084FFADF022E4CCAE
:10024400F875F008EF2FFFEE33FEEC33FCEE9DEC77
:10025400984005FCEE9DFE0FD5F0E9E4CEFD22EDBD
:10026400F8F5F0EE8420D21CFEADF075F008EF2F07
:10027400FFED33FD4007985006D5F0F222C398FDF8
:050284000FD5F0EA2295
:10028900C2D5EC30E709B2D5E4C39DFDE49CFCEE90
:1002990030E715B2D5E4C39FFFE49EFE120234C3D2
:1002A900E49DFDE49CFC800312023430D507C3E4CD
:0602B9009FFFE49EFE22FF
:00000001FF
