:100877002020205265636F726420312020202000E1
:100887002020205265636F726420322020202000D0
:100897002020205265636F726420332020202000BF
:1008A7002020205265636F726420342020202000AE
:0309620001280069
:1009D50012091BE4F528D2A8D288D2891200068014
:0109E500FB16
:030003000204D61E
:1004D600C0E0C0F0C083C082C0D075D000C000C0EC
:1004E60001C002C003C004C005C006C007E512640F
:1004F600057069E50864017063E511B401147BFFBA
:100506007A0879777D027F011208EC7F207E00123F
:1005160005F6E511B402147BFF7A0879877D027F20
:10052600011208EC7F407E021205F6E511B40314B1
:100536007BFF7A0879977D027F011208EC7F807E27
:10054600011205F6E511640460030205DB7BFF7A00
:100556000879A77D027F011208EC8021E512640567
:100566007073E5086402706DE511B404167BFF7ABA
:100576000879A77D027F011208EC7511017F207EA4
:1005860007804FE511B403167BFF7A0879977D0241
:100596007F011208EC7511047F807E018034E5111D
:1005A600B402167BFF7A0879877D027F011208EC78
:1005B6007511037F407E028019E511B401177BFF98
:1005C6007A0879777D027F011208EC7511027F2087
:1005D6007E001205F6D007D006D005D004D003D091
:1005E60002D001D000D0D0D082D083D0F0D0E0327B
:1009C300AD071FED600BE4FEEEC3947850F20E808A
:0109D300F72C
:0109D4002200
:0405F600AB07AA069F
:1005FA00C295C294C296E4FDFCC296AF0574257EEC
:10060A0000A807088006CEA2E713CE13D8F830E078
:10061A0004D2948002C294000000D2960000000D19
:10062A00BD00010CED64084C70CFD2957F321209DF
:10063A00C3C295C296E4FCFDC296AF05EBAE02A812
:10064A0007088005CEC313CE13D8F930E004D2943C
:10065A008002C294000000D2960000000DBD000185
:10066A000CED64104C70D1C294C296E4FCFDC296A3
:10067A00AF0574E77E00A807088006CEA2E713CE6E
:10068A0013D8F830E004D2948002C294000000D259
:10069A00960000000DBD00010CED64084C70CFE41B
:1006AA00FCFDC296AF0574F07E00A807088006CE4E
:1006BA00A2E713CE13D8F830E004D2948002C29491
:1006CA00000000D2960000000DBD00010CED640888
:0506DA004C70CFD29529
:0106DF0022F8
:04028B00AB07AA060D
:10028F00E4FDFCC296AF0574257E00A80708800622
:10029F00CEA2E713CE13D8F830E004D2948002C276
:1002AF0094000000D2960000000DBD00010CED641B
:1002BF00084C70CFE4FCFDD296AF0574257E00A8E4
:1002CF0007088006CEA2E713CE13D8F830E004D289
:1002DF00948002C294000000C2960000000DBD0081
:1002EF00010CED64084C70CFD2957F321209C37F99
:1002FF00321209C3C295C294C296E4FCFDC296AFF6
:10030F0005EBAE02A807088005CEC313CE13D8F9AC
:10031F0030E004D2948002C294000000D296000014
:10032F00000DBD00010CED64104C70D1C294C2964B
:10033F00E4FCFDC296AF0574A07E00A807088006F6
:10034F00CEA2E713CE13D8F830E004D2948002C2C5
:10035F0094000000D2960000000DBD00010CED646A
:10036F00084C70CFD295C295C294C296E4FCFDC2E0
:10037F0096AF0574B07E00A807088005C333CE334F
:10038F00CED8F930E004D2948002C294000000D29B
:10039F00960000000DBD00010CED64084C70D0D22A
:0103AF0095B8
:0103B000222A
:1008B700D295C295C294C296E4FDD29674307E005A
:1008C700A805088006CEA2E713CE13D8F830E004B7
:1008D700D2948002C294000000C2960000000DBDB1
:0408E70008D8D295C6
:0108EB0022EA
:1003B1004E756D2032207265636F7264696E6700DD
:1003C10020202020202020202020202020004E75C9
:1003D1006D2033207265636F7264696E67004E75BC
:1003E1006D2034207265636F7264696E670020202E
:1003F10020506C6179204D6F646520202020002001
:100401002020204D6F6465204120202020002020E5
:1004110020204D6F646520422020202000202020D4
:10042100204D6F64652043202020200020506C6106
:1004310079207265636F7264696E6720004E756D15
:100441002031207265636F7264696E67002020201D
:100451005374617274202020202020002020204D20
:100461006F6465204220202020002020204D6F64F1
:1004710065204320202020002020204D6F6465202E
:100481004120202020002020205265636F726420CB
:100491003120202020002020205265636F726420CB
:1004A1003220202020002020205265636F726420BA
:1004B1003320202020002020205265636F726420A9
:1004C1003420202020002020202053746F70202011
:0504D1002020202000A6
:10096500011200011300010800011100080900002F
:060975000000000000007C
:040940007F0A7E00AC
:10094400D3EF9400EE940040147D6E7C00ED1D7096
:0D095400011CED4C70F7EF1F70E61E80E3F4
:010961002273
:1000060030B7030200BC12094030B7030200BC053A
:1000160012E512B401087BFF7A0379B18061E5121B
:10002600B402087BFF7A0379CF8054E512B4030843
:100036007BFF7A0379DF8047E512640470367BFF25
:100046007A0379EF7D01FF1208ECE50870087BFF63
:100056007A047900801AE508B401097BFF7A0479ED
:100066000FE4800CE508640270497BFF7A04791E70
:10007600FDFF803CE512B405197BFF7A04792D7DDE
:1000860001E4FF1208EC7BFF7A0379C17D027F0150
:10009600801EE512B4061CE4F5127BFF7A04793E55
:1000A6007D01FF1208EC7BFF7A0379C17D027F0197
:1000B6001208EC30B7FD30B6030201D11209403008
:1000C600B6030201D1E51270137BFF7A04794E7DE7
:1000D600027F011208EC7F207E008046E512B40103
:1000E600137BFF7A04794E7D027F011208EC7F4074
:1000F6007E02802EE512B402137BFF7A04794E7DD0
:10010600027F011208EC7F807E018016E512B4039F
:10011600177BFF7A04794E7D027F011208EC7F205F
:100126007E0712028B0201CEE512640470330508C5
:10013600E508B401087BFF7A04795D801BE508B405
:1001460002087BFF7A04796B800EE50864037078F9
:10015600F5087BFF7A0479797D027F011208EC802D
:1001660067E51264057061E511B401137BFF7A043B
:1001760079877D027F011208EC7F207E008046E5AC
:1001860011B402137BFF7A0479977D027F0112086E
:10019600EC7F407E02802EE511B403137BFF7A04C8
:1001A60079A77D027F011208EC7F807E018016E52B
:1001B60011B404147BFF7A0479B77D027F0112081B
:1001C600EC7F207E071205F630B6FD20B539120900
:1001D6004020B5331208B7E5127002801AE512B452
:1001E60001028013E512B40202800CE512B4030288
:1001F6008005E512B4050D7BFF7A0479C77D027F81
:10020600011208EC30B5FD20B47A12094020B4740E
:10021600E5126405706B0511E511B40503E4F511EB
:10022600E511B401137BFF7A0479877D027F011201
:1002360008EC7F207E008046E511B402137BFF7A2E
:100246000479977D027F011208EC7F407E02802EA2
:10025600E511B403137BFF7A0479A77D027F0112AF
:1002660008EC7F807E018016E511B404147BFF7ACA
:100276000479B77D027F011208EC7F207E07120504
:05028600F630B4FD227A
:1009AC00D3EF9400EE9400400DE4FD0DBD02FCEF7E
:0609BC001F70ED1E80EA31
:0109C2002212
:10091B007F381209E67F381209E67F381209E67F25
:10092B000C1209E67F061209E67F011209E67F64C5
:05093B007E000209AC82
:1009E6008F80C290C291D292C2927F017E0002098C
:0109F600AC54
:1009F7008F80D290C291D292C2927F017E0002096B
:010A0700AC42
:02097C00AE07C4
:10097E00EEBD01052480FC800324C0FCAF041209E7
:06098E00E6AF030209F7C9
:10099400EFBD01052480FC800324C0FCAF041209D0
:0809A400E6EB2430FF0209F725
:1008EC008F238D248B258A268927AB25AA26A92719
:1008FC0012080960190527E5277002052614F9125C
:0F090C000809FBAD24AF2312097C052380DC22F0
:0806E0008F148D158A168B178B
:1006E800E4F51DFAAE16AF177C277D101208227CA0
:1006F800007D0A1208228D18AE16AF177C037DE81C
:100708001208227C007D0A1208228D19AE16AF1736
:100718007C007D641208227C007D0A1208228D1A52
:10072800AE16AF177C007D0A1208227C007D0A12E3
:1007380008228D1BAE16AF177C007D0A1208228D89
:100748001C7418251DF8E6700AE51D64046004058C
:100758001D80EEE4FAC37405951DFFEAC39F50148B
:10076800E5142AFFE51D2A2418F8E6FBAD15120941
:04077800940A80E17E
:01077C00225A
:0300000002077D77
:0C077D00787FE4F6D8FD75812C0207C4DB
:10080900BB010689828A83E0225002E722BBFE02ED
:09081900E32289828A83E4932220
:10082200BC000BBE0029EF8DF084FFADF022E4CCBA
:10083200F875F008EF2FFFEE33FEEC33FCEE9DEC83
:10084200984005FCEE9DFE0FD5F0E9E4CEFD22EDC9
:10085200F8F5F0EE8420D21CFEADF075F008EF2F13
:10086200FFED33FD4007985006D5F0F222C398FD04
:050872000FD5F0EA22A1
:100789000209D5E493A3F8E493A34003F68001F2A8
:1007990008DFF48029E493A3F85407240CC8C33371
:1007A900C4540F4420C8834004F456800146F6DF40
:1007B900E4800B0102040810204080900962E47E65
:1007C900019360BCA3FF543F30E509541FFEE49335
:1007D900A360010ECF54C025E060A840B8E493A3FC
:1007E900FAE493A3F8E493A3C8C582C8CAC583CA27
:1007F900F0A3C8C582C8CAC583CADFE9DEE780BEDF
:01097B00007B
:00000001FF
