:1007F5004E756D2031207265636F7264696E670096
:100805002020205265636F72642031202020200053
:100815002020205265636F72642032202020200042
:100825002020205265636F72642033202020200031
:100835002020205265636F72642034202020200020
:03091000012800BB
:1008F0001208A97BFF7A0779F57D01E4FF12087AD7
:10090000E4F528D2A8D288D289D2AF12000680FBA3
:03000300020450A4
:10045000C0E0C0F0C083C082C0D075D000C000C072
:1004600001C002C003C004C005C006C007E5126495
:10047000057068E50864017062E511B401137BFF43
:100480007A0879057D027F0112087AE4FFFE1205E1
:100490006EE511B402147BFF7A0879157D027F01A5
:1004A00012087A7F407E0212056EE511B403147BB8
:1004B000FF7A0879257D027F0112087A7F807E0409
:1004C00012056EE511640460030205537BFF7A0890
:1004D00079357D027F0112087A8021E5126405706A
:1004E00072E5086402706CE511B404167BFF7A08AB
:1004F00079357D027F0112087A7511017F207E0710
:10050000804EE511B403167BFF7A0879257D027FC2
:100510000112087A7511047F807E048033E511B4DE
:1005200002167BFF7A0879157D027F0112087A7521
:1005300011037F407E028018E511B401167BFF7A1B
:100540000879057D027F0112087A751102E4FFFE29
:1005500012056ED007D006D005D004D003D002D04B
:0E05600001D000D0D0D082D083D0F0D0E032D5
:04097100D2957F326A
:10097500AD071FED600BE4FEEEC3947850F20E80D8
:01098500F77A
:01098600224E
:04056E00AB07AA0627
:10057200C295C294C296E4FDFCC296AF0574207E79
:1005820000A807088006CEA2E713CE13D8F830E001
:1005920004D2948002C294000000D2960000000DA2
:1005A200BD00010CED64084C70CF120971C295C2F6
:1005B20094C296E4FCFDC296AF05EBAE02A8070812
:1005C2008005CEC313CE13D8F930E004D294800252
:1005D200C294000000D2960000000DBD00010CED97
:1005E20064104C70D1C294C296E4FCFDC296AF0571
:1005F20074E07E00A807088006CEA2E713CE13D8C7
:10060200F830E004D2948002C294000000D2960036
:1006120000000DBD00010CED64084C70CFD295C2F4
:1006220095C294C296E4FCFDC296AF0574F07E00BA
:10063200A807088006CEA2E713CE13D8F830E0044C
:10064200D2948002C294000000D2960000000DBD38
:0B06520000010CED64084C70CFD29545
:01065D00227A
:0401F900AB07AA06A0
:1001FD00C295C294C296E4FDFCC296AF0574207EF2
:10020D0000A807088006CEA2E713CE13D8F830E079
:10021D0004D2948002C294000000D2960000000D1A
:10022D00BD00010CED64084C70CF120971C295C26E
:10023D0094C296E4FCFDC296AF0574207E00A8071B
:10024D00088006CEA2E713CE13D8F830E004D2947E
:10025D008002C294000000D2960000000DBD000186
:10026D000CED64084C70CF1209717F32120975C202
:10027D0095C294C296E4FCFDC296AF05EBAE02A802
:10028D0007088005CEC313CE13D8F930E004D294FD
:10029D008002C294000000D2960000000DBD000146
:1002AD000CED64104C70D1C294C296E4FCFDC29664
:1002BD00AF0574A07E00A807088006CEA2E713CE76
:1002CD0013D8F830E004D2948002C294000000D21A
:1002DD00960000000DBD00010CED64084C70CFD2EE
:1002ED0095C295C294C296E4FCFDC296AF0574B05A
:1002FD007E00A807088006CEA2E713CE13D8F830EB
:10030D00E004D2948002C294000000D29600000056
:0D031D000DBD00010CED64084C70CFD295B1
:01032A0022B0
:10084500D295C295C294C296E4FDC29674307E00DC
:10085500A805088006CEA2E713CE13D8F830E00429
:10086500D2948002C294000000D2960000000DBD13
:0408750008D8D29538
:01087900225C
:10032B004E756D2032207265636F7264696E670063
:10033B0020202020202020202020202020004E754F
:10034B006D2033207265636F7264696E67004E7542
:10035B006D2034207265636F7264696E67002020B4
:10036B0020506C6179204D6F646520202020002087
:10037B002020204D6F64652041202020200020206C
:10038B0020204D6F6465204220202020002020205B
:10039B00204D6F64652043202020200020506C618D
:1003AB0079207265636F7264696E6720004E756D9C
:1003BB002031207265636F7264696E6700202020A4
:1003CB005374617274202020202020002020204DA7
:1003DB006F6465204220202020002020204D6F6478
:1003EB0065204320202020002020204D6F646520B5
:1003FB004120202020002020205265636F72642052
:10040B003120202020002020205265636F72642051
:10041B003220202020002020205265636F72642040
:10042B003320202020002020205265636F7264202F
:10043B003420202020002020202053746F70202097
:05044B0020202020002C
:100913000112000113000108000111000809000081
:06092300000000000000CE
:0408CE007F0A7E001F
:1008D200D3EF9400EE940040147D6E7C00ED1D7009
:0D08E200011CED4C70F7EF1F70E61E80E367
:0108EF0022E6
:1000060030B7030200BF1208CE30B7030200BF05A7
:1000160012E512B401087BFF7A03792B8064E5129E
:10002600B402087BFF7A0379498057E512B40308C6
:100036007BFF7A037959804AE512640470397BFFA5
:100046007A0379697D01FF12087AE50870087BFF5B
:100056007A03797A801CE508B4010B7BFF7A037971
:10006600897D02E4800EE5086402704A7BFF7A030C
:1000760079987D02FF803CE512B405197BFF7A036F
:1000860079A77D01E4FF12087A7BFF7A03793B7D2D
:10009600027F01801EE512B4061CE4F5127BFF7A8E
:1000A6000379B87D01FF12087A7BFF7A03793B7DDD
:1000B600027F0112087A30B7FD30B60302016A12D8
:1000C60008CE30B60302016AE51270028013E5120B
:1000D600B40102800CE512B402028005E512B403F5
:1000E600087BFF7A0379C88030E512640470330513
:1000F60008E508B401087BFF7A0379D7801BE50879
:10010600B402087BFF7A0379E5800EE50864037084
:1001160050F5087BFF7A0379F37D027F0112087A96
:10012600803FE51264057039E511B401087BFF7A5A
:100136000479018025E511B402087BFF7A04791160
:100146008018E511B403087BFF7A047921800BE55A
:1001560011B4040D7BFF7A0479317D027F01120808
:100166007A30B6FD20B5361208CE20B530E51270CD
:1001760002801AE512B401028013E512B40202806D
:100186000CE512B403028005E512B4050D7BFF7A77
:100196000479417D027F0112087A30B5FD20B45200
:1001A6001208CE20B44CE512640570430511E51122
:1001B600B40503E4F511E511B401087BFF7A04796F
:1001C600018025E511B402087BFF7A0479118018B5
:1001D600E511B403087BFF7A047921800BE511B49D
:1001E600040D7BFF7A0479317D027F0112087A3093
:0301F600B4FD2233
:10095A00D3EF9400EE9400400DE4FD0DBD02FCEFD0
:06096A001F70ED1E80EA83
:010970002264
:1008A9007F381209877F381209877F381209877FB5
:1008B9000C1209877F061209877F011209877F6455
:0508C9007E0002095A47
:100987008F80C290C291D292C2927F017E000209EB
:010997005A05
:100998008F80D290C291D292C2927F017E000209CA
:0109A8005AF4
:02092A00AE0716
:10092C00EEBD01052480FC800324C0FCAF04120939
:06093C0087AF03020998D9
:10094200EFBD01052480FC800324C0FCAF04120922
:0809520087EB2430FF02099835
:10087A008F238D248B258A268927AB25AA26A9278B
:10088A0012078760190527E5277002052614F91251
:0F089A000787FBAD24AF2312092A052380DC2238
:08065E008F148D158A168B170D
:10066600E4F51DFAAE16AF177C277D101207A07CA5
:10067600007D0A1207A08D18AE16AF177C037DE821
:100686001207A07C007D0A1207A08D19AE16AF17BF
:100696007C007D641207A07C007D0A1207A08D1ADB
:1006A600AE16AF177C007D0A1207A07C007D0A12E9
:1006B60007A08D1BAE16AF177C007D0A1207A08D12
:1006C6001C7418251DF8E6700AE51D64046004050F
:1006D6001D80EEE4FAC37405951DFFEAC39F50140E
:1006E600E5142AFFE51D2A2418F8E6FBAD151209C4
:0406F600420A80E153
:0106FA0022DD
:030000000206FBFA
:0C06FB00787FE4F6D8FD75812C020742E0
:10078700BB010689828A83E0225002E722BBFE0270
:09079700E32289828A83E49322A3
:1007A000BC000BBE0029EF8DF084FFADF022E4CC3D
:1007B000F875F008EF2FFFEE33FEEC33FCEE9DEC06
:1007C000984005FCEE9DFE0FD5F0E9E4CEFD22ED4C
:1007D000F8F5F0EE8420D21CFEADF075F008EF2F96
:1007E000FFED33FD4007985006D5F0F222C398FD87
:0507F0000FD5F0EA2224
:100707000208F0E493A3F8E493A34003F68001F210
:1007170008DFF48029E493A3F85407240CC8C333F3
:10072700C4540F4420C8834004F456800146F6DFC2
:10073700E4800B0102040810204080900910E47E39
:10074700019360BCA3FF543F30E509541FFEE493B7
:10075700A360010ECF54C025E060A840B8E493A37E
:10076700FAE493A3F8E493A3C8C582C8CAC583CAA9
:10077700F0A3C8C582C8CAC583CADFE9DEE780BE61
:0109290000CD
:00000001FF
